:060000000A128A11FC2F18
:100F7E00831203138C1EC42FC52FBF2F1A0808000F
:100F8E006130831603138F008316031788018901BE
:100F9E0083160313861383120313861319308316D5
:100FAE000313990018159816831203131816981721
:100FBE000A128A11BF270A128A11F200F21BE82FB9
:100FCE00EC2F831203138617EF2F8312031386134E
:100FDE008230F100DD30F000F00BF32FF10BF32F28
:100FEE00F82FDF2F0A128A11002883010A128A11A4
:020FFE00C72FFB
:02400E00E423A9
:00000001FF
