:060000000A128A11FC2F18
:100F7600831203138C1EC02FC12FBB2F1A08080023
:100F86000730831603139F0086018312031386011D
:100F9600193083160313990098161815903083128A
:100FA600031398000A128A11BB270A128A11F2004B
:100FB6007203031DDF2FE02FEF2F0310831203139D
:100FC600861F03140318E82FEC2F831203138617CA
:100FD600EF2F8312031386134130F100EE30F00039
:100FE600F00BF32FF10BF32F0000D52F0A128A1105
:0A0FF600002883010A128A11C32F9C
:02400E00E420AC
:00000001FF
