:060000000A128A11FC2F18
:100F7200F000831203130C1EBF2FC02FBA2F70086C
:100F8200990008000730831603139F00FF30860084
:100F920081131930990098161815831203139817A4
:100FA200060D060D0139F30083120313060D060D1B
:100FB2000139F400740873060319E02FE12FEF2FB3
:100FC2007408031DE52FE72F0130E82F00300A12C5
:100FD2008A11B9270A128A117408F3004130F2000B
:100FE200EE30F100F10BF32FF20BF32F0000D52FAF
:0E0FF2000A128A11002883010A128A11C32FE5
:02400E00E420AC
:00000001FF
