:060000000A128A11FC2F18
:100F7800F000831203130C1EC22FC32FBD2F70085D
:100F8800990008006130831603138F008316031736
:100F98008801890183160313861795178113193061
:100FA80099001815981683120313981783120313C0
:100FB800060D060D0139F3007308F1000630031021
:100FC800F10DFF3E031DE32F0310710D0A128A1164
:100FD800BC270A128A118230F200DD30F100F10BD1
:100FE800F32FF20BF32FF82FDA2F0A128A110028A9
:080FF80083010A128A11C62FC1
:02400E00E423A9
:00000001FF
